{
  "_format": "hh-sol-artifact-1",
  "contractName": "TodoList",
  "sourceName": "contracts/TodoList.sol",
  "abi": [
    {
      "inputs": [],
      "stateMutability": "nonpayable",
      "type": "constructor"
    },
    {
      "anonymous": false,
      "inputs": [
        {
          "indexed": false,
          "internalType": "string",
          "name": "title",
          "type": "string"
        },
        {
          "indexed": false,
          "internalType": "enum TodoList.Status",
          "name": "status",
          "type": "uint8"
        }
      ],
      "name": "TodoCreated",
      "type": "event"
    },
    {
      "anonymous": false,
      "inputs": [
        {
          "indexed": false,
          "internalType": "string",
          "name": "title",
          "type": "string"
        },
        {
          "indexed": false,
          "internalType": "enum TodoList.Status",
          "name": "status",
          "type": "uint8"
        }
      ],
      "name": "TodoUpdated",
      "type": "event"
    },
    {
      "inputs": [
        {
          "internalType": "string",
          "name": "_title",
          "type": "string"
        },
        {
          "internalType": "string",
          "name": "_desc",
          "type": "string"
        }
      ],
      "name": "createTodo",
      "outputs": [
        {
          "internalType": "bool",
          "name": "",
          "type": "bool"
        }
      ],
      "stateMutability": "nonpayable",
      "type": "function"
    },
    {
      "inputs": [
        {
          "internalType": "uint8",
          "name": "_index",
          "type": "uint8"
        }
      ],
      "name": "deleteTodo",
      "outputs": [],
      "stateMutability": "nonpayable",
      "type": "function"
    },
    {
      "inputs": [],
      "name": "getAllTodo",
      "outputs": [
        {
          "components": [
            {
              "internalType": "string",
              "name": "title",
              "type": "string"
            },
            {
              "internalType": "string",
              "name": "description",
              "type": "string"
            },
            {
              "internalType": "enum TodoList.Status",
              "name": "status",
              "type": "uint8"
            }
          ],
          "internalType": "struct TodoList.Todo[]",
          "name": "",
          "type": "tuple[]"
        }
      ],
      "stateMutability": "view",
      "type": "function"
    },
    {
      "inputs": [
        {
          "internalType": "uint8",
          "name": "_index",
          "type": "uint8"
        }
      ],
      "name": "getTodo",
      "outputs": [
        {
          "internalType": "string",
          "name": "",
          "type": "string"
        },
        {
          "internalType": "string",
          "name": "",
          "type": "string"
        },
        {
          "internalType": "enum TodoList.Status",
          "name": "",
          "type": "uint8"
        }
      ],
      "stateMutability": "view",
      "type": "function"
    },
    {
      "inputs": [],
      "name": "owner",
      "outputs": [
        {
          "internalType": "address",
          "name": "",
          "type": "address"
        }
      ],
      "stateMutability": "view",
      "type": "function"
    },
    {
      "inputs": [
        {
          "internalType": "uint8",
          "name": "_index",
          "type": "uint8"
        }
      ],
      "name": "todoCompleted",
      "outputs": [
        {
          "internalType": "bool",
          "name": "",
          "type": "bool"
        }
      ],
      "stateMutability": "nonpayable",
      "type": "function"
    },
    {
      "inputs": [
        {
          "internalType": "uint256",
          "name": "",
          "type": "uint256"
        }
      ],
      "name": "todos",
      "outputs": [
        {
          "internalType": "string",
          "name": "title",
          "type": "string"
        },
        {
          "internalType": "string",
          "name": "description",
          "type": "string"
        },
        {
          "internalType": "enum TodoList.Status",
          "name": "status",
          "type": "uint8"
        }
      ],
      "stateMutability": "view",
      "type": "function"
    },
    {
      "inputs": [
        {
          "internalType": "uint8",
          "name": "_index",
          "type": "uint8"
        },
        {
          "internalType": "string",
          "name": "_title",
          "type": "string"
        },
        {
          "internalType": "string",
          "name": "_desc",
          "type": "string"
        }
      ],
      "name": "updateTodo",
      "outputs": [],
      "stateMutability": "nonpayable",
      "type": "function"
    }
  ],
  "bytecode": "0x6080604052348015600f57600080fd5b50336000806101000a81548173ffffffffffffffffffffffffffffffffffffffff021916908373ffffffffffffffffffffffffffffffffffffffff160217905550611e3e8061005f6000396000f3fe608060405234801561001057600080fd5b50600436106100885760003560e01c8063982abb891161005b578063982abb8914610127578063bc8bc2b414610145578063e950516414610177578063fb0b86fb1461019357610088565b8063233881461461008d5780633380b99f146100a95780635607da51146100d95780638da5cb5b14610109575b600080fd5b6100a760048036038101906100a291906110e5565b6101c5565b005b6100c360048036038101906100be9190611258565b61042e565b6040516100d091906112eb565b60405180910390f35b6100f360048036038101906100ee91906110e5565b610648565b60405161010091906112eb565b60405180910390f35b6101116107f2565b60405161011e9190611347565b60405180910390f35b61012f610816565b60405161013c9190611571565b60405180910390f35b61015f600480360381019061015a91906115c9565b610a43565b60405161016e9392919061164f565b60405180910390f35b610191600480360381019061018c9190611694565b610b9a565b005b6101ad60048036038101906101a891906110e5565b610d9b565b6040516101bc9392919061164f565b60405180910390f35b60008054906101000a900473ffffffffffffffffffffffffffffffffffffffff1673ffffffffffffffffffffffffffffffffffffffff163373ffffffffffffffffffffffffffffffffffffffff1614610253576040517f08c379a000000000000000000000000000000000000000000000000000000000815260040161024a9061176b565b60405180910390fd5b600073ffffffffffffffffffffffffffffffffffffffff163373ffffffffffffffffffffffffffffffffffffffff16036102c2576040517f08c379a00000000000000000000000000000000000000000000000000000000081526004016102b9906117d7565b60405180910390fd5b6001805490508160ff161061030c576040517f08c379a000000000000000000000000000000000000000000000000000000000815260040161030390611843565b60405180910390fd5b600180808054905061031e9190611892565b8154811061032f5761032e6118c6565b5b906000526020600020906003020160018260ff1681548110610354576103536118c6565b5b9060005260206000209060030201600082018160000190816103769190611b17565b506001820181600101908161038b9190611b17565b506002820160009054906101000a900460ff168160020160006101000a81548160ff021916908360038111156103c4576103c361140d565b5b021790555090505060018054806103de576103dd611bff565b5b6001900381819060005260206000209060030201600080820160006104039190611008565b6001820160006104139190611008565b6002820160006101000a81549060ff02191690555050905550565b60008060009054906101000a900473ffffffffffffffffffffffffffffffffffffffff1673ffffffffffffffffffffffffffffffffffffffff163373ffffffffffffffffffffffffffffffffffffffff16146104bf576040517f08c379a00000000000000000000000000000000000000000000000000000000081526004016104b69061176b565b60405180910390fd5b600073ffffffffffffffffffffffffffffffffffffffff163373ffffffffffffffffffffffffffffffffffffffff160361052e576040517f08c379a0000000000000000000000000000000000000000000000000000000008152600401610525906117d7565b60405180910390fd5b610536611048565b8381600001819052508281602001819052506001816040019060038111156105615761056061140d565b5b908160038111156105755761057461140d565b5b81525050600181908060018154018082558091505060019003906000526020600020906003020160009091909190915060008201518160000190816105ba9190611c2e565b5060208201518160010190816105d09190611c2e565b5060408201518160020160006101000a81548160ff021916908360038111156105fc576105fb61140d565b5b021790555050507fb24501745f85fff88cc582df1223bf671a1234ab872711ffaa7eb8bd56fe311e846001604051610635929190611d00565b60405180910390a1600191505092915050565b60008060009054906101000a900473ffffffffffffffffffffffffffffffffffffffff1673ffffffffffffffffffffffffffffffffffffffff163373ffffffffffffffffffffffffffffffffffffffff16146106d9576040517f08c379a00000000000000000000000000000000000000000000000000000000081526004016106d09061176b565b60405180910390fd5b600073ffffffffffffffffffffffffffffffffffffffff163373ffffffffffffffffffffffffffffffffffffffff1603610748576040517f08c379a000000000000000000000000000000000000000000000000000000000815260040161073f906117d7565b60405180910390fd5b6001805490508260ff1610610792576040517f08c379a000000000000000000000000000000000000000000000000000000000815260040161078990611d7c565b60405180910390fd5b600060018360ff16815481106107ab576107aa6118c6565b5b9060005260206000209060030201905060038160020160006101000a81548160ff021916908360038111156107e3576107e261140d565b5b02179055506001915050919050565b60008054906101000a900473ffffffffffffffffffffffffffffffffffffffff1681565b6060600073ffffffffffffffffffffffffffffffffffffffff163373ffffffffffffffffffffffffffffffffffffffff1603610887576040517f08c379a000000000000000000000000000000000000000000000000000000000815260040161087e906117d7565b60405180910390fd5b6001805480602002602001604051908101604052809291908181526020016000905b82821015610a3a57838290600052602060002090600302016040518060600160405290816000820180546108dc90611924565b80601f016020809104026020016040519081016040528092919081815260200182805461090890611924565b80156109555780601f1061092a57610100808354040283529160200191610955565b820191906000526020600020905b81548152906001019060200180831161093857829003601f168201915b5050505050815260200160018201805461096e90611924565b80601f016020809104026020016040519081016040528092919081815260200182805461099a90611924565b80156109e75780601f106109bc576101008083540402835291602001916109e7565b820191906000526020600020905b8154815290600101906020018083116109ca57829003601f168201915b505050505081526020016002820160009054906101000a900460ff166003811115610a1557610a1461140d565b5b6003811115610a2757610a2661140d565b5b81525050815260200190600101906108a9565b50505050905090565b60018181548110610a5357600080fd5b9060005260206000209060030201600091509050806000018054610a7690611924565b80601f0160208091040260200160405190810160405280929190818152602001828054610aa290611924565b8015610aef5780601f10610ac457610100808354040283529160200191610aef565b820191906000526020600020905b815481529060010190602001808311610ad257829003601f168201915b505050505090806001018054610b0490611924565b80601f0160208091040260200160405190810160405280929190818152602001828054610b3090611924565b8015610b7d5780601f10610b5257610100808354040283529160200191610b7d565b820191906000526020600020905b815481529060010190602001808311610b6057829003601f168201915b5050505050908060020160009054906101000a900460ff16905083565b60008054906101000a900473ffffffffffffffffffffffffffffffffffffffff1673ffffffffffffffffffffffffffffffffffffffff163373ffffffffffffffffffffffffffffffffffffffff1614610c28576040517f08c379a0000000000000000000000000000000000000000000000000000000008152600401610c1f9061176b565b60405180910390fd5b600073ffffffffffffffffffffffffffffffffffffffff163373ffffffffffffffffffffffffffffffffffffffff1603610c97576040517f08c379a0000000000000000000000000000000000000000000000000000000008152600401610c8e906117d7565b60405180910390fd5b6001805490508360ff1610610ce1576040517f08c379a0000000000000000000000000000000000000000000000000000000008152600401610cd890611de8565b60405180910390fd5b600060018460ff1681548110610cfa57610cf96118c6565b5b9060005260206000209060030201905082816000019081610d1b9190611c2e565b5081816001019081610d2d9190611c2e565b5060028160020160006101000a81548160ff02191690836003811115610d5657610d5561140d565b5b02179055507f3ff5b2dbb379a3765de2a11e90d91cfaf54b178f2d29590471f1fb57642fd165836002604051610d8d929190611d00565b60405180910390a150505050565b60608060008073ffffffffffffffffffffffffffffffffffffffff163373ffffffffffffffffffffffffffffffffffffffff1603610e0e576040517f08c379a0000000000000000000000000000000000000000000000000000000008152600401610e05906117d7565b60405180910390fd5b6001805490508460ff1610610e58576040517f08c379a0000000000000000000000000000000000000000000000000000000008152600401610e4f90611843565b60405180910390fd5b600060018560ff1681548110610e7157610e706118c6565b5b9060005260206000209060030201604051806060016040529081600082018054610e9a90611924565b80601f0160208091040260200160405190810160405280929190818152602001828054610ec690611924565b8015610f135780601f10610ee857610100808354040283529160200191610f13565b820191906000526020600020905b815481529060010190602001808311610ef657829003601f168201915b50505050508152602001600182018054610f2c90611924565b80601f0160208091040260200160405190810160405280929190818152602001828054610f5890611924565b8015610fa55780601f10610f7a57610100808354040283529160200191610fa5565b820191906000526020600020905b815481529060010190602001808311610f8857829003601f168201915b505050505081526020016002820160009054906101000a900460ff166003811115610fd357610fd261140d565b5b6003811115610fe557610fe461140d565b5b815250509050806000015181602001518260400151935093509350509193909250565b50805461101490611924565b6000825580601f106110265750611045565b601f016020900490600052602060002090810190611044919061107b565b5b50565b60405180606001604052806060815260200160608152602001600060038111156110755761107461140d565b5b81525090565b5b8082111561109457600081600090555060010161107c565b5090565b6000604051905090565b600080fd5b600080fd5b600060ff82169050919050565b6110c2816110ac565b81146110cd57600080fd5b50565b6000813590506110df816110b9565b92915050565b6000602082840312156110fb576110fa6110a2565b5b6000611109848285016110d0565b91505092915050565b600080fd5b600080fd5b6000601f19601f8301169050919050565b7f4e487b7100000000000000000000000000000000000000000000000000000000600052604160045260246000fd5b6111658261111c565b810181811067ffffffffffffffff821117156111845761118361112d565b5b80604052505050565b6000611197611098565b90506111a3828261115c565b919050565b600067ffffffffffffffff8211156111c3576111c261112d565b5b6111cc8261111c565b9050602081019050919050565b82818337600083830152505050565b60006111fb6111f6846111a8565b61118d565b90508281526020810184848401111561121757611216611117565b5b6112228482856111d9565b509392505050565b600082601f83011261123f5761123e611112565b5b813561124f8482602086016111e8565b91505092915050565b6000806040838503121561126f5761126e6110a2565b5b600083013567ffffffffffffffff81111561128d5761128c6110a7565b5b6112998582860161122a565b925050602083013567ffffffffffffffff8111156112ba576112b96110a7565b5b6112c68582860161122a565b9150509250929050565b60008115159050919050565b6112e5816112d0565b82525050565b600060208201905061130060008301846112dc565b92915050565b600073ffffffffffffffffffffffffffffffffffffffff82169050919050565b600061133182611306565b9050919050565b61134181611326565b82525050565b600060208201905061135c6000830184611338565b92915050565b600081519050919050565b600082825260208201905092915050565b6000819050602082019050919050565b600081519050919050565b600082825260208201905092915050565b60005b838110156113c85780820151818401526020810190506113ad565b60008484015250505050565b60006113df8261138e565b6113e98185611399565b93506113f98185602086016113aa565b6114028161111c565b840191505092915050565b7f4e487b7100000000000000000000000000000000000000000000000000000000600052602160045260246000fd5b6004811061144d5761144c61140d565b5b50565b600081905061145e8261143c565b919050565b600061146e82611450565b9050919050565b61147e81611463565b82525050565b600060608301600083015184820360008601526114a182826113d4565b915050602083015184820360208601526114bb82826113d4565b91505060408301516114d06040860182611475565b508091505092915050565b60006114e78383611484565b905092915050565b6000602082019050919050565b600061150782611362565b611511818561136d565b9350836020820285016115238561137e565b8060005b8581101561155f578484038952815161154085826114db565b945061154b836114ef565b925060208a01995050600181019050611527565b50829750879550505050505092915050565b6000602082019050818103600083015261158b81846114fc565b905092915050565b6000819050919050565b6115a681611593565b81146115b157600080fd5b50565b6000813590506115c38161159d565b92915050565b6000602082840312156115df576115de6110a2565b5b60006115ed848285016115b4565b91505092915050565b600082825260208201905092915050565b60006116128261138e565b61161c81856115f6565b935061162c8185602086016113aa565b6116358161111c565b840191505092915050565b61164981611463565b82525050565b600060608201905081810360008301526116698186611607565b9050818103602083015261167d8185611607565b905061168c6040830184611640565b949350505050565b6000806000606084860312156116ad576116ac6110a2565b5b60006116bb868287016110d0565b935050602084013567ffffffffffffffff8111156116dc576116db6110a7565b5b6116e88682870161122a565b925050604084013567ffffffffffffffff811115611709576117086110a7565b5b6117158682870161122a565b9150509250925092565b7f596f75277265206e6f7420616c6c6f7765640000000000000000000000000000600082015250565b60006117556012836115f6565b91506117608261171f565b602082019050919050565b6000602082019050818103600083015261178481611748565b9050919050565b7f5a656f722061646472657373206e6f7420616c6c6f7765640000000000000000600082015250565b60006117c16018836115f6565b91506117cc8261178b565b602082019050919050565b600060208201905081810360008301526117f0816117b4565b9050919050565b7f496e646578206973206f75742d6f662d626f756e640000000000000000000000600082015250565b600061182d6015836115f6565b9150611838826117f7565b602082019050919050565b6000602082019050818103600083015261185c81611820565b9050919050565b7f4e487b7100000000000000000000000000000000000000000000000000000000600052601160045260246000fd5b600061189d82611593565b91506118a883611593565b92508282039050818111156118c0576118bf611863565b5b92915050565b7f4e487b7100000000000000000000000000000000000000000000000000000000600052603260045260246000fd5b7f4e487b7100000000000000000000000000000000000000000000000000000000600052602260045260246000fd5b6000600282049050600182168061193c57607f821691505b60208210810361194f5761194e6118f5565b5b50919050565b60008154905061196481611924565b9050919050565b60008190508160005260206000209050919050565b60006020601f8301049050919050565b600082821b905092915050565b6000600883026119cd7fffffffffffffffffffffffffffffffffffffffffffffffffffffffffffffffff82611990565b6119d78683611990565b95508019841693508086168417925050509392505050565b6000819050919050565b6000611a14611a0f611a0a84611593565b6119ef565b611593565b9050919050565b6000819050919050565b611a2e836119f9565b611a42611a3a82611a1b565b84845461199d565b825550505050565b600090565b611a57611a4a565b611a62818484611a25565b505050565b5b81811015611a8657611a7b600082611a4f565b600181019050611a68565b5050565b601f821115611acb57611a9c8161196b565b611aa584611980565b81016020851015611ab4578190505b611ac8611ac085611980565b830182611a67565b50505b505050565b600082821c905092915050565b6000611aee60001984600802611ad0565b1980831691505092915050565b6000611b078383611add565b9150826002028217905092915050565b818103611b25575050611bfd565b611b2e82611955565b67ffffffffffffffff811115611b4757611b4661112d565b5b611b518254611924565b611b5c828285611a8a565b6000601f831160018114611b8b5760008415611b79578287015490505b611b838582611afb565b865550611bf6565b601f198416611b998761196b565b9650611ba48661196b565b60005b82811015611bcc57848901548255600182019150600185019450602081019050611ba7565b86831015611be95784890154611be5601f891682611add565b8355505b6001600288020188555050505b5050505050505b565b7f4e487b7100000000000000000000000000000000000000000000000000000000600052603160045260246000fd5b611c378261138e565b67ffffffffffffffff811115611c5057611c4f61112d565b5b611c5a8254611924565b611c65828285611a8a565b600060209050601f831160018114611c985760008415611c86578287015190505b611c908582611afb565b865550611cf8565b601f198416611ca68661196b565b60005b82811015611cce57848901518255600182019150602085019450602081019050611ca9565b86831015611ceb5784890151611ce7601f891682611add565b8355505b6001600288020188555050505b505050505050565b60006040820190508181036000830152611d1a8185611607565b9050611d296020830184611640565b9392505050565b7f496e646578206973206f75722d6f662d626f756e640000000000000000000000600082015250565b6000611d666015836115f6565b9150611d7182611d30565b602082019050919050565b60006020820190508181036000830152611d9581611d59565b9050919050565b7f496e646578206973206f7574206f6620626f756e640000000000000000000000600082015250565b6000611dd26015836115f6565b9150611ddd82611d9c565b602082019050919050565b60006020820190508181036000830152611e0181611dc5565b905091905056fea264697066735822122030266e7bfe76be04eaa9b39981e8ff337b9947309a0e23da135a239a132917be64736f6c634300081b0033",
  "linkReferences": {},
  "deployedLinkReferences": {}
}